{
  "address": "0xDc64a140Aa3E981100a9becA4E685f962f0cF6C9",
  "abi": [
    {
      "inputs": [
        {
          "internalType": "address",
          "name": "vrfCoordinatorV2",
          "type": "address"
        },
        {
          "internalType": "bytes32",
          "name": "gasLane",
          "type": "bytes32"
        },
        {
          "internalType": "uint64",
          "name": "subscriptionId",
          "type": "uint64"
        },
        {
          "internalType": "uint32",
          "name": "callbackGasLimit",
          "type": "uint32"
        },
        {
          "internalType": "string[3]",
          "name": "dogTokenUris",
          "type": "string[3]"
        },
        {
          "internalType": "uint256",
          "name": "mintFee",
          "type": "uint256"
        }
      ],
      "stateMutability": "nonpayable",
      "type": "constructor"
    },
    {
      "inputs": [],
      "name": "NeedMoreEthToBeSent",
      "type": "error"
    },
    {
      "inputs": [
        {
          "internalType": "address",
          "name": "have",
          "type": "address"
        },
        {
          "internalType": "address",
          "name": "want",
          "type": "address"
        }
      ],
      "name": "OnlyCoordinatorCanFulfill",
      "type": "error"
    },
    {
      "inputs": [],
      "name": "RangeOutOfBounds",
      "type": "error"
    },
    {
      "anonymous": false,
      "inputs": [
        {
          "indexed": true,
          "internalType": "address",
          "name": "owner",
          "type": "address"
        },
        {
          "indexed": true,
          "internalType": "address",
          "name": "approved",
          "type": "address"
        },
        {
          "indexed": true,
          "internalType": "uint256",
          "name": "tokenId",
          "type": "uint256"
        }
      ],
      "name": "Approval",
      "type": "event"
    },
    {
      "anonymous": false,
      "inputs": [
        {
          "indexed": true,
          "internalType": "address",
          "name": "owner",
          "type": "address"
        },
        {
          "indexed": true,
          "internalType": "address",
          "name": "operator",
          "type": "address"
        },
        {
          "indexed": false,
          "internalType": "bool",
          "name": "approved",
          "type": "bool"
        }
      ],
      "name": "ApprovalForAll",
      "type": "event"
    },
    {
      "anonymous": false,
      "inputs": [
        {
          "indexed": false,
          "internalType": "enum RandomipfsNft.Breed",
          "name": "breed",
          "type": "uint8"
        },
        {
          "indexed": false,
          "internalType": "address",
          "name": "minter",
          "type": "address"
        }
      ],
      "name": "NftMinted",
      "type": "event"
    },
    {
      "anonymous": false,
      "inputs": [
        {
          "indexed": true,
          "internalType": "uint256",
          "name": "requestId",
          "type": "uint256"
        },
        {
          "indexed": false,
          "internalType": "address",
          "name": "requester",
          "type": "address"
        }
      ],
      "name": "NftRequested",
      "type": "event"
    },
    {
      "anonymous": false,
      "inputs": [
        {
          "indexed": true,
          "internalType": "address",
          "name": "previousOwner",
          "type": "address"
        },
        {
          "indexed": true,
          "internalType": "address",
          "name": "newOwner",
          "type": "address"
        }
      ],
      "name": "OwnershipTransferred",
      "type": "event"
    },
    {
      "anonymous": false,
      "inputs": [
        {
          "indexed": true,
          "internalType": "address",
          "name": "from",
          "type": "address"
        },
        {
          "indexed": true,
          "internalType": "address",
          "name": "to",
          "type": "address"
        },
        {
          "indexed": true,
          "internalType": "uint256",
          "name": "tokenId",
          "type": "uint256"
        }
      ],
      "name": "Transfer",
      "type": "event"
    },
    {
      "inputs": [
        {
          "internalType": "address",
          "name": "to",
          "type": "address"
        },
        {
          "internalType": "uint256",
          "name": "tokenId",
          "type": "uint256"
        }
      ],
      "name": "approve",
      "outputs": [],
      "stateMutability": "nonpayable",
      "type": "function"
    },
    {
      "inputs": [
        {
          "internalType": "address",
          "name": "owner",
          "type": "address"
        }
      ],
      "name": "balanceOf",
      "outputs": [
        {
          "internalType": "uint256",
          "name": "",
          "type": "uint256"
        }
      ],
      "stateMutability": "view",
      "type": "function"
    },
    {
      "inputs": [
        {
          "internalType": "uint256",
          "name": "tokenId",
          "type": "uint256"
        }
      ],
      "name": "getApproved",
      "outputs": [
        {
          "internalType": "address",
          "name": "",
          "type": "address"
        }
      ],
      "stateMutability": "view",
      "type": "function"
    },
    {
      "inputs": [
        {
          "internalType": "uint256",
          "name": "moddedRng",
          "type": "uint256"
        }
      ],
      "name": "getBreedFromModdedRng",
      "outputs": [
        {
          "internalType": "enum RandomipfsNft.Breed",
          "name": "",
          "type": "uint8"
        }
      ],
      "stateMutability": "pure",
      "type": "function"
    },
    {
      "inputs": [],
      "name": "getChanceArray",
      "outputs": [
        {
          "internalType": "uint256[3]",
          "name": "",
          "type": "uint256[3]"
        }
      ],
      "stateMutability": "pure",
      "type": "function"
    },
    {
      "inputs": [
        {
          "internalType": "uint256",
          "name": "index",
          "type": "uint256"
        }
      ],
      "name": "getDogTokenUris",
      "outputs": [
        {
          "internalType": "string",
          "name": "",
          "type": "string"
        }
      ],
      "stateMutability": "view",
      "type": "function"
    },
    {
      "inputs": [],
      "name": "getMintFee",
      "outputs": [
        {
          "internalType": "uint256",
          "name": "",
          "type": "uint256"
        }
      ],
      "stateMutability": "view",
      "type": "function"
    },
    {
      "inputs": [],
      "name": "getTokenCounter",
      "outputs": [
        {
          "internalType": "uint256",
          "name": "",
          "type": "uint256"
        }
      ],
      "stateMutability": "view",
      "type": "function"
    },
    {
      "inputs": [
        {
          "internalType": "address",
          "name": "owner",
          "type": "address"
        },
        {
          "internalType": "address",
          "name": "operator",
          "type": "address"
        }
      ],
      "name": "isApprovedForAll",
      "outputs": [
        {
          "internalType": "bool",
          "name": "",
          "type": "bool"
        }
      ],
      "stateMutability": "view",
      "type": "function"
    },
    {
      "inputs": [],
      "name": "name",
      "outputs": [
        {
          "internalType": "string",
          "name": "",
          "type": "string"
        }
      ],
      "stateMutability": "view",
      "type": "function"
    },
    {
      "inputs": [],
      "name": "owner",
      "outputs": [
        {
          "internalType": "address",
          "name": "",
          "type": "address"
        }
      ],
      "stateMutability": "view",
      "type": "function"
    },
    {
      "inputs": [
        {
          "internalType": "uint256",
          "name": "tokenId",
          "type": "uint256"
        }
      ],
      "name": "ownerOf",
      "outputs": [
        {
          "internalType": "address",
          "name": "",
          "type": "address"
        }
      ],
      "stateMutability": "view",
      "type": "function"
    },
    {
      "inputs": [
        {
          "internalType": "uint256",
          "name": "requestId",
          "type": "uint256"
        },
        {
          "internalType": "uint256[]",
          "name": "randomWords",
          "type": "uint256[]"
        }
      ],
      "name": "rawFulfillRandomWords",
      "outputs": [],
      "stateMutability": "nonpayable",
      "type": "function"
    },
    {
      "inputs": [],
      "name": "renounceOwnership",
      "outputs": [],
      "stateMutability": "nonpayable",
      "type": "function"
    },
    {
      "inputs": [],
      "name": "requestNft",
      "outputs": [
        {
          "internalType": "uint256",
          "name": "requestId",
          "type": "uint256"
        }
      ],
      "stateMutability": "payable",
      "type": "function"
    },
    {
      "inputs": [
        {
          "internalType": "address",
          "name": "from",
          "type": "address"
        },
        {
          "internalType": "address",
          "name": "to",
          "type": "address"
        },
        {
          "internalType": "uint256",
          "name": "tokenId",
          "type": "uint256"
        }
      ],
      "name": "safeTransferFrom",
      "outputs": [],
      "stateMutability": "nonpayable",
      "type": "function"
    },
    {
      "inputs": [
        {
          "internalType": "address",
          "name": "from",
          "type": "address"
        },
        {
          "internalType": "address",
          "name": "to",
          "type": "address"
        },
        {
          "internalType": "uint256",
          "name": "tokenId",
          "type": "uint256"
        },
        {
          "internalType": "bytes",
          "name": "data",
          "type": "bytes"
        }
      ],
      "name": "safeTransferFrom",
      "outputs": [],
      "stateMutability": "nonpayable",
      "type": "function"
    },
    {
      "inputs": [
        {
          "internalType": "address",
          "name": "operator",
          "type": "address"
        },
        {
          "internalType": "bool",
          "name": "approved",
          "type": "bool"
        }
      ],
      "name": "setApprovalForAll",
      "outputs": [],
      "stateMutability": "nonpayable",
      "type": "function"
    },
    {
      "inputs": [
        {
          "internalType": "bytes4",
          "name": "interfaceId",
          "type": "bytes4"
        }
      ],
      "name": "supportsInterface",
      "outputs": [
        {
          "internalType": "bool",
          "name": "",
          "type": "bool"
        }
      ],
      "stateMutability": "view",
      "type": "function"
    },
    {
      "inputs": [],
      "name": "symbol",
      "outputs": [
        {
          "internalType": "string",
          "name": "",
          "type": "string"
        }
      ],
      "stateMutability": "view",
      "type": "function"
    },
    {
      "inputs": [
        {
          "internalType": "uint256",
          "name": "tokenId",
          "type": "uint256"
        }
      ],
      "name": "tokenURI",
      "outputs": [
        {
          "internalType": "string",
          "name": "",
          "type": "string"
        }
      ],
      "stateMutability": "view",
      "type": "function"
    },
    {
      "inputs": [
        {
          "internalType": "address",
          "name": "from",
          "type": "address"
        },
        {
          "internalType": "address",
          "name": "to",
          "type": "address"
        },
        {
          "internalType": "uint256",
          "name": "tokenId",
          "type": "uint256"
        }
      ],
      "name": "transferFrom",
      "outputs": [],
      "stateMutability": "nonpayable",
      "type": "function"
    },
    {
      "inputs": [
        {
          "internalType": "address",
          "name": "newOwner",
          "type": "address"
        }
      ],
      "name": "transferOwnership",
      "outputs": [],
      "stateMutability": "nonpayable",
      "type": "function"
    },
    {
      "inputs": [],
      "name": "withdraw",
      "outputs": [],
      "stateMutability": "nonpayable",
      "type": "function"
    }
  ],
  "transactionHash": "0x528edea10af98ae887bfb3bf7d19dba3b984b518116be07e06df432a952477ec",
  "args": [
    "0x5FbDB2315678afecb367f032d93F642f64180aa3",
    "0xd89b2bf150e3b9e13446986e571fb9cab24b13cea0a43ea20a6049a85cc807cc",
    "1",
    "500000",
    [
      "ipfs://Qma5qx2kEDRF6FhH7cEpEbbBmbvmEJxs4FAi5Sm37a8Hfb",
      "ipfs://Qmd66k2vLQDczbUEqn15nDeHS9xpq3xdBehFe5DtDHBAmd",
      "ipfs://QmdXzXk8FmUa3ByZkRPsgnau6JyjvVRspxf4KmkB1kQBMZ"
    ],
    "10000000000000000"
  ],
  "numDeployments": 1,
  "solcInputHash": "f1a6bef4a9c80a784ca16a161f32934e",
  "bytecode": "0x6101406040523480156200001257600080fd5b50604051620042b8380380620042b88339818101604052810190620000389190620005d7565b6040518060400160405280600f81526020017f52616e646f6d2049706673204e465400000000000000000000000000000000008152506040518060400160405280600381526020017f52494e0000000000000000000000000000000000000000000000000000000000815250878073ffffffffffffffffffffffffffffffffffffffff1660808173ffffffffffffffffffffffffffffffffffffffff1660601b81525050508160009080519060200190620000f59291906200029e565b5080600190805190602001906200010e9291906200029e565b5050506200013162000125620001d060201b60201c565b620001d860201b60201c565b8573ffffffffffffffffffffffffffffffffffffffff1660a08173ffffffffffffffffffffffffffffffffffffffff1660601b815250508460c081815250508367ffffffffffffffff1660e08167ffffffffffffffff1660c01b815250508263ffffffff166101008163ffffffff1660e01b81525050816008906003620001ba9291906200032f565b5080610120818152505050505050505062000932565b600033905090565b6000600760009054906101000a900473ffffffffffffffffffffffffffffffffffffffff16905081600760006101000a81548173ffffffffffffffffffffffffffffffffffffffff021916908373ffffffffffffffffffffffffffffffffffffffff1602179055508173ffffffffffffffffffffffffffffffffffffffff168173ffffffffffffffffffffffffffffffffffffffff167f8be0079c531659141344cd1fd0a4f28419497f9722a3daafe3b4186f6b6457e060405160405180910390a35050565b828054620002ac90620007bc565b90600052602060002090601f016020900481019282620002d057600085556200031c565b82601f10620002eb57805160ff19168380011785556200031c565b828001600101855582156200031c579182015b828111156200031b578251825591602001919060010190620002fe565b5b5090506200032b919062000396565b5090565b82805482825590600052602060002090810192821562000383579160200282015b8281111562000382578251829080519060200190620003719291906200029e565b509160200191906001019062000350565b5b509050620003929190620003b5565b5090565b5b80821115620003b157600081600090555060010162000397565b5090565b5b80821115620003d95760008181620003cf9190620003dd565b50600101620003b6565b5090565b508054620003eb90620007bc565b6000825580601f10620003ff575062000420565b601f0160209004906000526020600020908101906200041f919062000396565b5b50565b60006200043a6200043484620006bb565b62000692565b905080828560208602820111156200045757620004566200088b565b5b60005b85811015620004ac57815167ffffffffffffffff81111562000481576200048062000886565b5b8086016200049089826200055f565b855260208501945060208401935050506001810190506200045a565b5050509392505050565b6000620004cd620004c784620006e4565b62000692565b905082815260208101848484011115620004ec57620004eb62000890565b5b620004f984828562000786565b509392505050565b6000815190506200051281620008b0565b92915050565b600082601f83011262000530576200052f62000886565b5b60036200053f84828562000423565b91505092915050565b6000815190506200055981620008ca565b92915050565b600082601f83011262000577576200057662000886565b5b815162000589848260208601620004b6565b91505092915050565b600081519050620005a381620008e4565b92915050565b600081519050620005ba81620008fe565b92915050565b600081519050620005d18162000918565b92915050565b60008060008060008060c08789031215620005f757620005f66200089a565b5b60006200060789828a0162000501565b96505060206200061a89828a0162000548565b95505060406200062d89828a01620005c0565b94505060606200064089828a01620005a9565b935050608087015167ffffffffffffffff81111562000664576200066362000895565b5b6200067289828a0162000518565b92505060a06200068589828a0162000592565b9150509295509295509295565b60006200069e620006b1565b9050620006ac8282620007f2565b919050565b6000604051905090565b600067ffffffffffffffff821115620006d957620006d862000857565b5b602082029050919050565b600067ffffffffffffffff82111562000702576200070162000857565b5b6200070d826200089f565b9050602081019050919050565b6000620007278262000738565b9050919050565b6000819050919050565b600073ffffffffffffffffffffffffffffffffffffffff82169050919050565b6000819050919050565b600063ffffffff82169050919050565b600067ffffffffffffffff82169050919050565b60005b83811015620007a657808201518184015260208101905062000789565b83811115620007b6576000848401525b50505050565b60006002820490506001821680620007d557607f821691505b60208210811415620007ec57620007eb62000828565b5b50919050565b620007fd826200089f565b810181811067ffffffffffffffff821117156200081f576200081e62000857565b5b80604052505050565b7f4e487b7100000000000000000000000000000000000000000000000000000000600052602260045260246000fd5b7f4e487b7100000000000000000000000000000000000000000000000000000000600052604160045260246000fd5b600080fd5b600080fd5b600080fd5b600080fd5b600080fd5b6000601f19601f8301169050919050565b620008bb816200071a565b8114620008c757600080fd5b50565b620008d5816200072e565b8114620008e157600080fd5b50565b620008ef8162000758565b8114620008fb57600080fd5b50565b620009098162000762565b81146200091557600080fd5b50565b620009238162000772565b81146200092f57600080fd5b50565b60805160601c60a05160601c60c05160e05160c01c6101005160e01c6101205161391c6200099c60003960008181610cdb0152610ea101526000610f7b01526000610f5801526000610f3701526000610efb01526000818161087901526108cd015261391c6000f3fe60806040526004361061014b5760003560e01c806370a08231116100b6578063a51cccf31161006f578063a51cccf31461047e578063aa152491146104bb578063b88d4fde146104d9578063c87b56dd14610502578063e985e9c51461053f578063f2fde38b1461057c5761014b565b806370a0823114610380578063715018a6146103bd5780637a5caab3146103d45780638da5cb5b146103ff57806395d89b411461042a578063a22cb465146104555761014b565b80633af25975116101085780633af25975146102705780633ccfd60b146102ad57806342842e0e146102c45780635dacf5f4146102ed5780636352211e146103185780636e02007d146103555761014b565b806301ffc9a71461015057806306fdde031461018d578063081812fc146101b8578063095ea7b3146101f55780631fe543e31461021e57806323b872dd14610247575b600080fd5b34801561015c57600080fd5b5061017760048036038101906101729190612719565b6105a5565b6040516101849190612ce5565b60405180910390f35b34801561019957600080fd5b506101a2610687565b6040516101af9190612d97565b60405180910390f35b3480156101c457600080fd5b506101df60048036038101906101da9190612773565b610719565b6040516101ec9190612c3a565b60405180910390f35b34801561020157600080fd5b5061021c600480360381019061021791906126d9565b61075f565b005b34801561022a57600080fd5b50610245600480360381019061024091906127cd565b610877565b005b34801561025357600080fd5b5061026e600480360381019061026991906125c3565b610937565b005b34801561027c57600080fd5b5061029760048036038101906102929190612773565b610997565b6040516102a49190612d97565b60405180910390f35b3480156102b957600080fd5b506102c2610a47565b005b3480156102d057600080fd5b506102eb60048036038101906102e691906125c3565b610b04565b005b3480156102f957600080fd5b50610302610b24565b60405161030f9190612cca565b60405180910390f35b34801561032457600080fd5b5061033f600480360381019061033a9190612773565b610b4f565b60405161034c9190612c3a565b60405180910390f35b34801561036157600080fd5b5061036a610c01565b6040516103779190612f99565b60405180910390f35b34801561038c57600080fd5b506103a760048036038101906103a29190612556565b610c0b565b6040516103b49190612f99565b60405180910390f35b3480156103c957600080fd5b506103d2610cc3565b005b3480156103e057600080fd5b506103e9610cd7565b6040516103f69190612f99565b60405180910390f35b34801561040b57600080fd5b50610414610cff565b6040516104219190612c3a565b60405180910390f35b34801561043657600080fd5b5061043f610d29565b60405161044c9190612d97565b60405180910390f35b34801561046157600080fd5b5061047c60048036038101906104779190612699565b610dbb565b005b34801561048a57600080fd5b506104a560048036038101906104a09190612773565b610dd1565b6040516104b29190612d53565b60405180910390f35b6104c3610e9d565b6040516104d09190612f99565b60405180910390f35b3480156104e557600080fd5b5061050060048036038101906104fb9190612616565b61109d565b005b34801561050e57600080fd5b5061052960048036038101906105249190612773565b6110ff565b6040516105369190612d97565b60405180910390f35b34801561054b57600080fd5b5061056660048036038101906105619190612583565b611212565b6040516105739190612ce5565b60405180910390f35b34801561058857600080fd5b506105a3600480360381019061059e9190612556565b6112a6565b005b60007f80ac58cd000000000000000000000000000000000000000000000000000000007bffffffffffffffffffffffffffffffffffffffffffffffffffffffff1916827bffffffffffffffffffffffffffffffffffffffffffffffffffffffff1916148061067057507f5b5e139f000000000000000000000000000000000000000000000000000000007bffffffffffffffffffffffffffffffffffffffffffffffffffffffff1916827bffffffffffffffffffffffffffffffffffffffffffffffffffffffff1916145b80610680575061067f8261132a565b5b9050919050565b60606000805461069690613295565b80601f01602080910402602001604051908101604052809291908181526020018280546106c290613295565b801561070f5780601f106106e45761010080835404028352916020019161070f565b820191906000526020600020905b8154815290600101906020018083116106f257829003601f168201915b5050505050905090565b600061072482611394565b6004600083815260200190815260200160002060009054906101000a900473ffffffffffffffffffffffffffffffffffffffff169050919050565b600061076a82610b4f565b90508073ffffffffffffffffffffffffffffffffffffffff168373ffffffffffffffffffffffffffffffffffffffff1614156107db576040517f08c379a00000000000000000000000000000000000000000000000000000000081526004016107d290612f59565b60405180910390fd5b8073ffffffffffffffffffffffffffffffffffffffff166107fa6113df565b73ffffffffffffffffffffffffffffffffffffffff1614806108295750610828816108236113df565b611212565b5b610868576040517f08c379a000000000000000000000000000000000000000000000000000000000815260040161085f90612ed9565b60405180910390fd5b61087283836113e7565b505050565b7f000000000000000000000000000000000000000000000000000000000000000073ffffffffffffffffffffffffffffffffffffffff163373ffffffffffffffffffffffffffffffffffffffff161461092957337f00000000000000000000000000000000000000000000000000000000000000006040517f1cf993f4000000000000000000000000000000000000000000000000000000008152600401610920929190612c55565b60405180910390fd5b61093382826114a0565b5050565b6109486109426113df565b82611625565b610987576040517f08c379a000000000000000000000000000000000000000000000000000000000815260040161097e90612f79565b60405180910390fd5b6109928383836116ba565b505050565b6060600882815481106109ad576109ac61342e565b5b9060005260206000200180546109c290613295565b80601f01602080910402602001604051908101604052809291908181526020018280546109ee90613295565b8015610a3b5780601f10610a1057610100808354040283529160200191610a3b565b820191906000526020600020905b815481529060010190602001808311610a1e57829003601f168201915b50505050509050919050565b610a4f611921565b600047905060003373ffffffffffffffffffffffffffffffffffffffff1682604051610a7a90612c25565b60006040518083038185875af1925050503d8060008114610ab7576040519150601f19603f3d011682016040523d82523d6000602084013e610abc565b606091505b5050905080610b00576040517f08c379a0000000000000000000000000000000000000000000000000000000008152600401610af790612df9565b60405180910390fd5b5050565b610b1f8383836040518060200160405280600081525061109d565b505050565b610b2c612305565b6040518060600160405280600a8152602001601e81526020016064815250905090565b6000806002600084815260200190815260200160002060009054906101000a900473ffffffffffffffffffffffffffffffffffffffff169050600073ffffffffffffffffffffffffffffffffffffffff168173ffffffffffffffffffffffffffffffffffffffff161415610bf8576040517f08c379a0000000000000000000000000000000000000000000000000000000008152600401610bef90612f39565b60405180910390fd5b80915050919050565b6000600a54905090565b60008073ffffffffffffffffffffffffffffffffffffffff168273ffffffffffffffffffffffffffffffffffffffff161415610c7c576040517f08c379a0000000000000000000000000000000000000000000000000000000008152600401610c7390612e99565b60405180910390fd5b600360008373ffffffffffffffffffffffffffffffffffffffff1673ffffffffffffffffffffffffffffffffffffffff168152602001908152602001600020549050919050565b610ccb611921565b610cd5600061199f565b565b60007f0000000000000000000000000000000000000000000000000000000000000000905090565b6000600760009054906101000a900473ffffffffffffffffffffffffffffffffffffffff16905090565b606060018054610d3890613295565b80601f0160208091040260200160405190810160405280929190818152602001828054610d6490613295565b8015610db15780601f10610d8657610100808354040283529160200191610db1565b820191906000526020600020905b815481529060010190602001808311610d9457829003601f168201915b5050505050905090565b610dcd610dc66113df565b8383611a65565b5050565b600080600090506000610de2610b24565b905060005b6003811015610e6557828510158015610e165750818160038110610e0e57610e0d61342e565b5b602002015185105b15610e3857806002811115610e2e57610e2d6133d0565b5b9350505050610e98565b818160038110610e4b57610e4a61342e565b5b602002015192508080610e5d906132f8565b915050610de7565b506040517f0655dc2500000000000000000000000000000000000000000000000000000000815260040160405180910390fd5b919050565b60007f0000000000000000000000000000000000000000000000000000000000000000341015610ef9576040517fce5c8f6100000000000000000000000000000000000000000000000000000000815260040160405180910390fd5b7f000000000000000000000000000000000000000000000000000000000000000073ffffffffffffffffffffffffffffffffffffffff16635d3b1d307f00000000000000000000000000000000000000000000000000000000000000007f000000000000000000000000000000000000000000000000000000000000000060037f000000000000000000000000000000000000000000000000000000000000000060016040518663ffffffff1660e01b8152600401610fbc959493929190612d00565b602060405180830381600087803b158015610fd657600080fd5b505af1158015610fea573d6000803e3d6000fd5b505050506040513d601f19601f8201168201806040525081019061100e91906127a0565b9050336009600083815260200190815260200160002060006101000a81548173ffffffffffffffffffffffffffffffffffffffff021916908373ffffffffffffffffffffffffffffffffffffffff160217905550807ff873236e6cc0ecc5be1a9a35c95ee5b8d1ac4cc7bfef0cc5060391d6cc98e26b336040516110929190612c3a565b60405180910390a290565b6110ae6110a86113df565b83611625565b6110ed576040517f08c379a00000000000000000000000000000000000000000000000000000000081526004016110e490612f79565b60405180910390fd5b6110f984848484611bd2565b50505050565b606061110a82611394565b600060066000848152602001908152602001600020805461112a90613295565b80601f016020809104026020016040519081016040528092919081815260200182805461115690613295565b80156111a35780601f10611178576101008083540402835291602001916111a3565b820191906000526020600020905b81548152906001019060200180831161118657829003601f168201915b5050505050905060006111b4611c2e565b90506000815114156111ca57819250505061120d565b6000825111156111ff5780826040516020016111e7929190612c01565b6040516020818303038152906040529250505061120d565b61120884611c45565b925050505b919050565b6000600560008473ffffffffffffffffffffffffffffffffffffffff1673ffffffffffffffffffffffffffffffffffffffff16815260200190815260200160002060008373ffffffffffffffffffffffffffffffffffffffff1673ffffffffffffffffffffffffffffffffffffffff16815260200190815260200160002060009054906101000a900460ff16905092915050565b6112ae611921565b600073ffffffffffffffffffffffffffffffffffffffff168173ffffffffffffffffffffffffffffffffffffffff16141561131e576040517f08c379a000000000000000000000000000000000000000000000000000000000815260040161131590612dd9565b60405180910390fd5b6113278161199f565b50565b60007f01ffc9a7000000000000000000000000000000000000000000000000000000007bffffffffffffffffffffffffffffffffffffffffffffffffffffffff1916827bffffffffffffffffffffffffffffffffffffffffffffffffffffffff1916149050919050565b61139d81611cad565b6113dc576040517f08c379a00000000000000000000000000000000000000000000000000000000081526004016113d390612f39565b60405180910390fd5b50565b600033905090565b816004600083815260200190815260200160002060006101000a81548173ffffffffffffffffffffffffffffffffffffffff021916908373ffffffffffffffffffffffffffffffffffffffff160217905550808273ffffffffffffffffffffffffffffffffffffffff1661145a83610b4f565b73ffffffffffffffffffffffffffffffffffffffff167f8c5be1e5ebec7d5bd14f71427d1e84f3dd0314c0f7b2291e5b200ac8c7c3b92560405160405180910390a45050565b60006009600084815260200190815260200160002060009054906101000a900473ffffffffffffffffffffffffffffffffffffffff1690506000600a54905060006064846000815181106114f7576114f661342e565b5b60200260200101516115099190613341565b9050600061151682610dd1565b90506115228484611d19565b6115e483600883600281111561153b5761153a6133d0565b5b8154811061154c5761154b61342e565b5b90600052602060002001805461156190613295565b80601f016020809104026020016040519081016040528092919081815260200182805461158d90613295565b80156115da5780601f106115af576101008083540402835291602001916115da565b820191906000526020600020905b8154815290600101906020018083116115bd57829003601f168201915b5050505050611d37565b7f8a269f26b688e110e9cbd887d163dab35cae678fa353a0292de532c0cac1ecdc8185604051611615929190612d6e565b60405180910390a1505050505050565b60008061163183610b4f565b90508073ffffffffffffffffffffffffffffffffffffffff168473ffffffffffffffffffffffffffffffffffffffff16148061167357506116728185611212565b5b806116b157508373ffffffffffffffffffffffffffffffffffffffff1661169984610719565b73ffffffffffffffffffffffffffffffffffffffff16145b91505092915050565b8273ffffffffffffffffffffffffffffffffffffffff166116da82610b4f565b73ffffffffffffffffffffffffffffffffffffffff1614611730576040517f08c379a000000000000000000000000000000000000000000000000000000000815260040161172790612e19565b60405180910390fd5b600073ffffffffffffffffffffffffffffffffffffffff168273ffffffffffffffffffffffffffffffffffffffff1614156117a0576040517f08c379a000000000000000000000000000000000000000000000000000000000815260040161179790612e59565b60405180910390fd5b6117ab838383611dab565b6117b66000826113e7565b6001600360008573ffffffffffffffffffffffffffffffffffffffff1673ffffffffffffffffffffffffffffffffffffffff16815260200190815260200160002060008282546118069190613138565b925050819055506001600360008473ffffffffffffffffffffffffffffffffffffffff1673ffffffffffffffffffffffffffffffffffffffff168152602001908152602001600020600082825461185d91906130b1565b92505081905550816002600083815260200190815260200160002060006101000a81548173ffffffffffffffffffffffffffffffffffffffff021916908373ffffffffffffffffffffffffffffffffffffffff160217905550808273ffffffffffffffffffffffffffffffffffffffff168473ffffffffffffffffffffffffffffffffffffffff167fddf252ad1be2c89b69c2b068fc378daa952ba7f163c4a11628f55a4df523b3ef60405160405180910390a461191c838383611db0565b505050565b6119296113df565b73ffffffffffffffffffffffffffffffffffffffff16611947610cff565b73ffffffffffffffffffffffffffffffffffffffff161461199d576040517f08c379a000000000000000000000000000000000000000000000000000000000815260040161199490612f19565b60405180910390fd5b565b6000600760009054906101000a900473ffffffffffffffffffffffffffffffffffffffff16905081600760006101000a81548173ffffffffffffffffffffffffffffffffffffffff021916908373ffffffffffffffffffffffffffffffffffffffff1602179055508173ffffffffffffffffffffffffffffffffffffffff168173ffffffffffffffffffffffffffffffffffffffff167f8be0079c531659141344cd1fd0a4f28419497f9722a3daafe3b4186f6b6457e060405160405180910390a35050565b8173ffffffffffffffffffffffffffffffffffffffff168373ffffffffffffffffffffffffffffffffffffffff161415611ad4576040517f08c379a0000000000000000000000000000000000000000000000000000000008152600401611acb90612e79565b60405180910390fd5b80600560008573ffffffffffffffffffffffffffffffffffffffff1673ffffffffffffffffffffffffffffffffffffffff16815260200190815260200160002060008473ffffffffffffffffffffffffffffffffffffffff1673ffffffffffffffffffffffffffffffffffffffff16815260200190815260200160002060006101000a81548160ff0219169083151502179055508173ffffffffffffffffffffffffffffffffffffffff168373ffffffffffffffffffffffffffffffffffffffff167f17307eab39ab6107e8899845ad3d59bd9653f200f220920489ca2b5937696c3183604051611bc59190612ce5565b60405180910390a3505050565b611bdd8484846116ba565b611be984848484611db5565b611c28576040517f08c379a0000000000000000000000000000000000000000000000000000000008152600401611c1f90612db9565b60405180910390fd5b50505050565b606060405180602001604052806000815250905090565b6060611c5082611394565b6000611c5a611c2e565b90506000815111611c7a5760405180602001604052806000815250611ca5565b80611c8484611f4c565b604051602001611c95929190612c01565b6040516020818303038152906040525b915050919050565b60008073ffffffffffffffffffffffffffffffffffffffff166002600084815260200190815260200160002060009054906101000a900473ffffffffffffffffffffffffffffffffffffffff1673ffffffffffffffffffffffffffffffffffffffff1614159050919050565b611d338282604051806020016040528060008152506120ad565b5050565b611d4082611cad565b611d7f576040517f08c379a0000000000000000000000000000000000000000000000000000000008152600401611d7690612eb9565b60405180910390fd5b80600660008481526020019081526020016000209080519060200190611da6929190612327565b505050565b505050565b505050565b6000611dd68473ffffffffffffffffffffffffffffffffffffffff16612108565b15611f3f578373ffffffffffffffffffffffffffffffffffffffff1663150b7a02611dff6113df565b8786866040518563ffffffff1660e01b8152600401611e219493929190612c7e565b602060405180830381600087803b158015611e3b57600080fd5b505af1925050508015611e6c57506040513d601f19601f82011682018060405250810190611e699190612746565b60015b611eef573d8060008114611e9c576040519150601f19603f3d011682016040523d82523d6000602084013e611ea1565b606091505b50600081511415611ee7576040517f08c379a0000000000000000000000000000000000000000000000000000000008152600401611ede90612db9565b60405180910390fd5b805181602001fd5b63150b7a0260e01b7bffffffffffffffffffffffffffffffffffffffffffffffffffffffff1916817bffffffffffffffffffffffffffffffffffffffffffffffffffffffff191614915050611f44565b600190505b949350505050565b60606000821415611f94576040518060400160405280600181526020017f300000000000000000000000000000000000000000000000000000000000000081525090506120a8565b600082905060005b60008214611fc6578080611faf906132f8565b915050600a82611fbf9190613107565b9150611f9c565b60008167ffffffffffffffff811115611fe257611fe161345d565b5b6040519080825280601f01601f1916602001820160405280156120145781602001600182028036833780820191505090505b5090505b600085146120a15760018261202d9190613138565b9150600a8561203c9190613341565b603061204891906130b1565b60f81b81838151811061205e5761205d61342e565b5b60200101907effffffffffffffffffffffffffffffffffffffffffffffffffffffffffffff1916908160001a905350600a8561209a9190613107565b9450612018565b8093505050505b919050565b6120b7838361212b565b6120c46000848484611db5565b612103576040517f08c379a00000000000000000000000000000000000000000000000000000000081526004016120fa90612db9565b60405180910390fd5b505050565b6000808273ffffffffffffffffffffffffffffffffffffffff163b119050919050565b600073ffffffffffffffffffffffffffffffffffffffff168273ffffffffffffffffffffffffffffffffffffffff16141561219b576040517f08c379a000000000000000000000000000000000000000000000000000000000815260040161219290612ef9565b60405180910390fd5b6121a481611cad565b156121e4576040517f08c379a00000000000000000000000000000000000000000000000000000000081526004016121db90612e39565b60405180910390fd5b6121f060008383611dab565b6001600360008473ffffffffffffffffffffffffffffffffffffffff1673ffffffffffffffffffffffffffffffffffffffff168152602001908152602001600020600082825461224091906130b1565b92505081905550816002600083815260200190815260200160002060006101000a81548173ffffffffffffffffffffffffffffffffffffffff021916908373ffffffffffffffffffffffffffffffffffffffff160217905550808273ffffffffffffffffffffffffffffffffffffffff16600073ffffffffffffffffffffffffffffffffffffffff167fddf252ad1be2c89b69c2b068fc378daa952ba7f163c4a11628f55a4df523b3ef60405160405180910390a461230160008383611db0565b5050565b6040518060600160405280600390602082028036833780820191505090505090565b82805461233390613295565b90600052602060002090601f016020900481019282612355576000855561239c565b82601f1061236e57805160ff191683800117855561239c565b8280016001018555821561239c579182015b8281111561239b578251825591602001919060010190612380565b5b5090506123a991906123ad565b5090565b5b808211156123c65760008160009055506001016123ae565b5090565b60006123dd6123d884612fd9565b612fb4565b90508083825260208201905082856020860282011115612400576123ff613491565b5b60005b858110156124305781612416888261252c565b845260208401935060208301925050600181019050612403565b5050509392505050565b600061244d61244884613005565b612fb4565b90508281526020810184848401111561246957612468613496565b5b612474848285613253565b509392505050565b60008135905061248b8161388a565b92915050565b600082601f8301126124a6576124a561348c565b5b81356124b68482602086016123ca565b91505092915050565b6000813590506124ce816138a1565b92915050565b6000813590506124e3816138b8565b92915050565b6000815190506124f8816138b8565b92915050565b600082601f8301126125135761251261348c565b5b813561252384826020860161243a565b91505092915050565b60008135905061253b816138cf565b92915050565b600081519050612550816138cf565b92915050565b60006020828403121561256c5761256b6134a0565b5b600061257a8482850161247c565b91505092915050565b6000806040838503121561259a576125996134a0565b5b60006125a88582860161247c565b92505060206125b98582860161247c565b9150509250929050565b6000806000606084860312156125dc576125db6134a0565b5b60006125ea8682870161247c565b93505060206125fb8682870161247c565b925050604061260c8682870161252c565b9150509250925092565b600080600080608085870312156126305761262f6134a0565b5b600061263e8782880161247c565b945050602061264f8782880161247c565b93505060406126608782880161252c565b925050606085013567ffffffffffffffff8111156126815761268061349b565b5b61268d878288016124fe565b91505092959194509250565b600080604083850312156126b0576126af6134a0565b5b60006126be8582860161247c565b92505060206126cf858286016124bf565b9150509250929050565b600080604083850312156126f0576126ef6134a0565b5b60006126fe8582860161247c565b925050602061270f8582860161252c565b9150509250929050565b60006020828403121561272f5761272e6134a0565b5b600061273d848285016124d4565b91505092915050565b60006020828403121561275c5761275b6134a0565b5b600061276a848285016124e9565b91505092915050565b600060208284031215612789576127886134a0565b5b60006127978482850161252c565b91505092915050565b6000602082840312156127b6576127b56134a0565b5b60006127c484828501612541565b91505092915050565b600080604083850312156127e4576127e36134a0565b5b60006127f28582860161252c565b925050602083013567ffffffffffffffff8111156128135761281261349b565b5b61281f85828601612491565b9150509250929050565b60006128358383612bc5565b60208301905092915050565b61284a8161316c565b82525050565b61285981613040565b612863818461306e565b925061286e82613036565b8060005b8381101561289f5781516128868782612829565b965061289183613061565b925050600181019050612872565b505050505050565b6128b08161317e565b82525050565b6128bf8161318a565b82525050565b60006128d08261304b565b6128da8185613079565b93506128ea818560208601613262565b6128f3816134a5565b840191505092915050565b6129078161322f565b82525050565b600061291882613056565b6129228185613095565b9350612932818560208601613262565b61293b816134a5565b840191505092915050565b600061295182613056565b61295b81856130a6565b935061296b818560208601613262565b80840191505092915050565b6000612984603283613095565b915061298f826134b6565b604082019050919050565b60006129a7602683613095565b91506129b282613505565b604082019050919050565b60006129ca600f83613095565b91506129d582613554565b602082019050919050565b60006129ed602583613095565b91506129f88261357d565b604082019050919050565b6000612a10601c83613095565b9150612a1b826135cc565b602082019050919050565b6000612a33602483613095565b9150612a3e826135f5565b604082019050919050565b6000612a56601983613095565b9150612a6182613644565b602082019050919050565b6000612a79602983613095565b9150612a848261366d565b604082019050919050565b6000612a9c602e83613095565b9150612aa7826136bc565b604082019050919050565b6000612abf603e83613095565b9150612aca8261370b565b604082019050919050565b6000612ae2602083613095565b9150612aed8261375a565b602082019050919050565b6000612b05602083613095565b9150612b1082613783565b602082019050919050565b6000612b28601883613095565b9150612b33826137ac565b602082019050919050565b6000612b4b602183613095565b9150612b56826137d5565b604082019050919050565b6000612b6e60008361308a565b9150612b7982613824565b600082019050919050565b6000612b91602e83613095565b9150612b9c82613827565b604082019050919050565b612bb0816131d3565b82525050565b612bbf81613241565b82525050565b612bce81613201565b82525050565b612bdd81613201565b82525050565b612bec8161320b565b82525050565b612bfb8161321b565b82525050565b6000612c0d8285612946565b9150612c198284612946565b91508190509392505050565b6000612c3082612b61565b9150819050919050565b6000602082019050612c4f6000830184612841565b92915050565b6000604082019050612c6a6000830185612841565b612c776020830184612841565b9392505050565b6000608082019050612c936000830187612841565b612ca06020830186612841565b612cad6040830185612bd4565b8181036060830152612cbf81846128c5565b905095945050505050565b6000606082019050612cdf6000830184612850565b92915050565b6000602082019050612cfa60008301846128a7565b92915050565b600060a082019050612d1560008301886128b6565b612d226020830187612bf2565b612d2f6040830186612ba7565b612d3c6060830185612be3565b612d496080830184612bb6565b9695505050505050565b6000602082019050612d6860008301846128fe565b92915050565b6000604082019050612d8360008301856128fe565b612d906020830184612841565b9392505050565b60006020820190508181036000830152612db1818461290d565b905092915050565b60006020820190508181036000830152612dd281612977565b9050919050565b60006020820190508181036000830152612df28161299a565b9050919050565b60006020820190508181036000830152612e12816129bd565b9050919050565b60006020820190508181036000830152612e32816129e0565b9050919050565b60006020820190508181036000830152612e5281612a03565b9050919050565b60006020820190508181036000830152612e7281612a26565b9050919050565b60006020820190508181036000830152612e9281612a49565b9050919050565b60006020820190508181036000830152612eb281612a6c565b9050919050565b60006020820190508181036000830152612ed281612a8f565b9050919050565b60006020820190508181036000830152612ef281612ab2565b9050919050565b60006020820190508181036000830152612f1281612ad5565b9050919050565b60006020820190508181036000830152612f3281612af8565b9050919050565b60006020820190508181036000830152612f5281612b1b565b9050919050565b60006020820190508181036000830152612f7281612b3e565b9050919050565b60006020820190508181036000830152612f9281612b84565b9050919050565b6000602082019050612fae6000830184612bd4565b92915050565b6000612fbe612fcf565b9050612fca82826132c7565b919050565b6000604051905090565b600067ffffffffffffffff821115612ff457612ff361345d565b5b602082029050602081019050919050565b600067ffffffffffffffff8211156130205761301f61345d565b5b613029826134a5565b9050602081019050919050565b6000819050919050565b600060039050919050565b600081519050919050565b600081519050919050565b6000602082019050919050565b600081905092915050565b600082825260208201905092915050565b600081905092915050565b600082825260208201905092915050565b600081905092915050565b60006130bc82613201565b91506130c783613201565b9250827fffffffffffffffffffffffffffffffffffffffffffffffffffffffffffffffff038211156130fc576130fb613372565b5b828201905092915050565b600061311282613201565b915061311d83613201565b92508261312d5761312c6133a1565b5b828204905092915050565b600061314382613201565b915061314e83613201565b92508282101561316157613160613372565b5b828203905092915050565b6000613177826131e1565b9050919050565b60008115159050919050565b6000819050919050565b60007fffffffff0000000000000000000000000000000000000000000000000000000082169050919050565b60008190506131ce82613876565b919050565b600061ffff82169050919050565b600073ffffffffffffffffffffffffffffffffffffffff82169050919050565b6000819050919050565b600063ffffffff82169050919050565b600067ffffffffffffffff82169050919050565b600061323a826131c0565b9050919050565b600061324c826131d3565b9050919050565b82818337600083830152505050565b60005b83811015613280578082015181840152602081019050613265565b8381111561328f576000848401525b50505050565b600060028204905060018216806132ad57607f821691505b602082108114156132c1576132c06133ff565b5b50919050565b6132d0826134a5565b810181811067ffffffffffffffff821117156132ef576132ee61345d565b5b80604052505050565b600061330382613201565b91507fffffffffffffffffffffffffffffffffffffffffffffffffffffffffffffffff82141561333657613335613372565b5b600182019050919050565b600061334c82613201565b915061335783613201565b925082613367576133666133a1565b5b828206905092915050565b7f4e487b7100000000000000000000000000000000000000000000000000000000600052601160045260246000fd5b7f4e487b7100000000000000000000000000000000000000000000000000000000600052601260045260246000fd5b7f4e487b7100000000000000000000000000000000000000000000000000000000600052602160045260246000fd5b7f4e487b7100000000000000000000000000000000000000000000000000000000600052602260045260246000fd5b7f4e487b7100000000000000000000000000000000000000000000000000000000600052603260045260246000fd5b7f4e487b7100000000000000000000000000000000000000000000000000000000600052604160045260246000fd5b600080fd5b600080fd5b600080fd5b600080fd5b600080fd5b6000601f19601f8301169050919050565b7f4552433732313a207472616e7366657220746f206e6f6e20455243373231526560008201527f63656976657220696d706c656d656e7465720000000000000000000000000000602082015250565b7f4f776e61626c653a206e6577206f776e657220697320746865207a65726f206160008201527f6464726573730000000000000000000000000000000000000000000000000000602082015250565b7f5472616e73666572206661696c65640000000000000000000000000000000000600082015250565b7f4552433732313a207472616e736665722066726f6d20696e636f72726563742060008201527f6f776e6572000000000000000000000000000000000000000000000000000000602082015250565b7f4552433732313a20746f6b656e20616c7265616479206d696e74656400000000600082015250565b7f4552433732313a207472616e7366657220746f20746865207a65726f2061646460008201527f7265737300000000000000000000000000000000000000000000000000000000602082015250565b7f4552433732313a20617070726f766520746f2063616c6c657200000000000000600082015250565b7f4552433732313a2061646472657373207a65726f206973206e6f74206120766160008201527f6c6964206f776e65720000000000000000000000000000000000000000000000602082015250565b7f45524337323155524953746f726167653a2055524920736574206f66206e6f6e60008201527f6578697374656e7420746f6b656e000000000000000000000000000000000000602082015250565b7f4552433732313a20617070726f76652063616c6c6572206973206e6f7420746f60008201527f6b656e206f776e6572206e6f7220617070726f76656420666f7220616c6c0000602082015250565b7f4552433732313a206d696e7420746f20746865207a65726f2061646472657373600082015250565b7f4f776e61626c653a2063616c6c6572206973206e6f7420746865206f776e6572600082015250565b7f4552433732313a20696e76616c696420746f6b656e2049440000000000000000600082015250565b7f4552433732313a20617070726f76616c20746f2063757272656e74206f776e6560008201527f7200000000000000000000000000000000000000000000000000000000000000602082015250565b50565b7f4552433732313a2063616c6c6572206973206e6f7420746f6b656e206f776e6560008201527f72206e6f7220617070726f766564000000000000000000000000000000000000602082015250565b60038110613887576138866133d0565b5b50565b6138938161316c565b811461389e57600080fd5b50565b6138aa8161317e565b81146138b557600080fd5b50565b6138c181613194565b81146138cc57600080fd5b50565b6138d881613201565b81146138e357600080fd5b5056fea2646970667358221220d41e4eb0d1f8f1d555caebb2e0edcb79c56bb3c82758e3d464347c8d073d4ff964736f6c63430008070033",
  "devdoc": {
    "kind": "dev",
    "methods": {
      "approve(address,uint256)": {
        "details": "See {IERC721-approve}."
      },
      "balanceOf(address)": {
        "details": "See {IERC721-balanceOf}."
      },
      "getApproved(uint256)": {
        "details": "See {IERC721-getApproved}."
      },
      "isApprovedForAll(address,address)": {
        "details": "See {IERC721-isApprovedForAll}."
      },
      "name()": {
        "details": "See {IERC721Metadata-name}."
      },
      "owner()": {
        "details": "Returns the address of the current owner."
      },
      "ownerOf(uint256)": {
        "details": "See {IERC721-ownerOf}."
      },
      "renounceOwnership()": {
        "details": "Leaves the contract without owner. It will not be possible to call `onlyOwner` functions anymore. Can only be called by the current owner. NOTE: Renouncing ownership will leave the contract without an owner, thereby removing any functionality that is only available to the owner."
      },
      "safeTransferFrom(address,address,uint256)": {
        "details": "See {IERC721-safeTransferFrom}."
      },
      "safeTransferFrom(address,address,uint256,bytes)": {
        "details": "See {IERC721-safeTransferFrom}."
      },
      "setApprovalForAll(address,bool)": {
        "details": "See {IERC721-setApprovalForAll}."
      },
      "supportsInterface(bytes4)": {
        "details": "See {IERC165-supportsInterface}."
      },
      "symbol()": {
        "details": "See {IERC721Metadata-symbol}."
      },
      "tokenURI(uint256)": {
        "details": "See {IERC721Metadata-tokenURI}."
      },
      "transferFrom(address,address,uint256)": {
        "details": "See {IERC721-transferFrom}."
      },
      "transferOwnership(address)": {
        "details": "Transfers ownership of the contract to a new account (`newOwner`). Can only be called by the current owner."
      }
    },
    "version": 1
  },
  "userdoc": {
    "kind": "user",
    "methods": {},
    "version": 1
  },
  "storageLayout": {
    "storage": [
      {
        "astId": 292,
        "contract": "contracts/RandomipfsNft.sol:RandomipfsNft",
        "label": "_name",
        "offset": 0,
        "slot": "0",
        "type": "t_string_storage"
      },
      {
        "astId": 294,
        "contract": "contracts/RandomipfsNft.sol:RandomipfsNft",
        "label": "_symbol",
        "offset": 0,
        "slot": "1",
        "type": "t_string_storage"
      },
      {
        "astId": 298,
        "contract": "contracts/RandomipfsNft.sol:RandomipfsNft",
        "label": "_owners",
        "offset": 0,
        "slot": "2",
        "type": "t_mapping(t_uint256,t_address)"
      },
      {
        "astId": 302,
        "contract": "contracts/RandomipfsNft.sol:RandomipfsNft",
        "label": "_balances",
        "offset": 0,
        "slot": "3",
        "type": "t_mapping(t_address,t_uint256)"
      },
      {
        "astId": 306,
        "contract": "contracts/RandomipfsNft.sol:RandomipfsNft",
        "label": "_tokenApprovals",
        "offset": 0,
        "slot": "4",
        "type": "t_mapping(t_uint256,t_address)"
      },
      {
        "astId": 312,
        "contract": "contracts/RandomipfsNft.sol:RandomipfsNft",
        "label": "_operatorApprovals",
        "offset": 0,
        "slot": "5",
        "type": "t_mapping(t_address,t_mapping(t_address,t_bool))"
      },
      {
        "astId": 1280,
        "contract": "contracts/RandomipfsNft.sol:RandomipfsNft",
        "label": "_tokenURIs",
        "offset": 0,
        "slot": "6",
        "type": "t_mapping(t_uint256,t_string_storage)"
      },
      {
        "astId": 161,
        "contract": "contracts/RandomipfsNft.sol:RandomipfsNft",
        "label": "_owner",
        "offset": 0,
        "slot": "7",
        "type": "t_address"
      },
      {
        "astId": 2039,
        "contract": "contracts/RandomipfsNft.sol:RandomipfsNft",
        "label": "s_dogTokenUris",
        "offset": 0,
        "slot": "8",
        "type": "t_array(t_string_storage)dyn_storage"
      },
      {
        "astId": 2045,
        "contract": "contracts/RandomipfsNft.sol:RandomipfsNft",
        "label": "s_requestIdtoSender",
        "offset": 0,
        "slot": "9",
        "type": "t_mapping(t_uint256,t_address)"
      },
      {
        "astId": 2047,
        "contract": "contracts/RandomipfsNft.sol:RandomipfsNft",
        "label": "s_tokenCounter",
        "offset": 0,
        "slot": "10",
        "type": "t_uint256"
      }
    ],
    "types": {
      "t_address": {
        "encoding": "inplace",
        "label": "address",
        "numberOfBytes": "20"
      },
      "t_array(t_string_storage)dyn_storage": {
        "base": "t_string_storage",
        "encoding": "dynamic_array",
        "label": "string[]",
        "numberOfBytes": "32"
      },
      "t_bool": {
        "encoding": "inplace",
        "label": "bool",
        "numberOfBytes": "1"
      },
      "t_mapping(t_address,t_bool)": {
        "encoding": "mapping",
        "key": "t_address",
        "label": "mapping(address => bool)",
        "numberOfBytes": "32",
        "value": "t_bool"
      },
      "t_mapping(t_address,t_mapping(t_address,t_bool))": {
        "encoding": "mapping",
        "key": "t_address",
        "label": "mapping(address => mapping(address => bool))",
        "numberOfBytes": "32",
        "value": "t_mapping(t_address,t_bool)"
      },
      "t_mapping(t_address,t_uint256)": {
        "encoding": "mapping",
        "key": "t_address",
        "label": "mapping(address => uint256)",
        "numberOfBytes": "32",
        "value": "t_uint256"
      },
      "t_mapping(t_uint256,t_address)": {
        "encoding": "mapping",
        "key": "t_uint256",
        "label": "mapping(uint256 => address)",
        "numberOfBytes": "32",
        "value": "t_address"
      },
      "t_mapping(t_uint256,t_string_storage)": {
        "encoding": "mapping",
        "key": "t_uint256",
        "label": "mapping(uint256 => string)",
        "numberOfBytes": "32",
        "value": "t_string_storage"
      },
      "t_string_storage": {
        "encoding": "bytes",
        "label": "string",
        "numberOfBytes": "32"
      },
      "t_uint256": {
        "encoding": "inplace",
        "label": "uint256",
        "numberOfBytes": "32"
      }
    }
  }
}