{
  "_format": "hh-sol-artifact-1",
  "contractName": "RandomipfsNft",
  "sourceName": "contracts/RandomipfsNft.sol",
  "abi": [
    {
      "inputs": [
        {
          "internalType": "address",
          "name": "vrfCoordinatorV2",
          "type": "address"
        },
        {
          "internalType": "bytes32",
          "name": "gasLane",
          "type": "bytes32"
        },
        {
          "internalType": "uint64",
          "name": "subscriptionId",
          "type": "uint64"
        },
        {
          "internalType": "uint32",
          "name": "callbackGasLimit",
          "type": "uint32"
        },
        {
          "internalType": "string[3]",
          "name": "dogTokenUris",
          "type": "string[3]"
        },
        {
          "internalType": "uint256",
          "name": "mintFee",
          "type": "uint256"
        }
      ],
      "stateMutability": "nonpayable",
      "type": "constructor"
    },
    {
      "inputs": [],
      "name": "NeedMoreEthToBeSent",
      "type": "error"
    },
    {
      "inputs": [
        {
          "internalType": "address",
          "name": "have",
          "type": "address"
        },
        {
          "internalType": "address",
          "name": "want",
          "type": "address"
        }
      ],
      "name": "OnlyCoordinatorCanFulfill",
      "type": "error"
    },
    {
      "inputs": [],
      "name": "RangeOutOfBounds",
      "type": "error"
    },
    {
      "anonymous": false,
      "inputs": [
        {
          "indexed": true,
          "internalType": "address",
          "name": "owner",
          "type": "address"
        },
        {
          "indexed": true,
          "internalType": "address",
          "name": "approved",
          "type": "address"
        },
        {
          "indexed": true,
          "internalType": "uint256",
          "name": "tokenId",
          "type": "uint256"
        }
      ],
      "name": "Approval",
      "type": "event"
    },
    {
      "anonymous": false,
      "inputs": [
        {
          "indexed": true,
          "internalType": "address",
          "name": "owner",
          "type": "address"
        },
        {
          "indexed": true,
          "internalType": "address",
          "name": "operator",
          "type": "address"
        },
        {
          "indexed": false,
          "internalType": "bool",
          "name": "approved",
          "type": "bool"
        }
      ],
      "name": "ApprovalForAll",
      "type": "event"
    },
    {
      "anonymous": false,
      "inputs": [
        {
          "indexed": false,
          "internalType": "enum RandomipfsNft.Breed",
          "name": "breed",
          "type": "uint8"
        },
        {
          "indexed": false,
          "internalType": "address",
          "name": "minter",
          "type": "address"
        }
      ],
      "name": "NftMinted",
      "type": "event"
    },
    {
      "anonymous": false,
      "inputs": [
        {
          "indexed": true,
          "internalType": "uint256",
          "name": "requestId",
          "type": "uint256"
        },
        {
          "indexed": false,
          "internalType": "address",
          "name": "requester",
          "type": "address"
        }
      ],
      "name": "NftRequested",
      "type": "event"
    },
    {
      "anonymous": false,
      "inputs": [
        {
          "indexed": true,
          "internalType": "address",
          "name": "previousOwner",
          "type": "address"
        },
        {
          "indexed": true,
          "internalType": "address",
          "name": "newOwner",
          "type": "address"
        }
      ],
      "name": "OwnershipTransferred",
      "type": "event"
    },
    {
      "anonymous": false,
      "inputs": [
        {
          "indexed": true,
          "internalType": "address",
          "name": "from",
          "type": "address"
        },
        {
          "indexed": true,
          "internalType": "address",
          "name": "to",
          "type": "address"
        },
        {
          "indexed": true,
          "internalType": "uint256",
          "name": "tokenId",
          "type": "uint256"
        }
      ],
      "name": "Transfer",
      "type": "event"
    },
    {
      "inputs": [
        {
          "internalType": "address",
          "name": "to",
          "type": "address"
        },
        {
          "internalType": "uint256",
          "name": "tokenId",
          "type": "uint256"
        }
      ],
      "name": "approve",
      "outputs": [],
      "stateMutability": "nonpayable",
      "type": "function"
    },
    {
      "inputs": [
        {
          "internalType": "address",
          "name": "owner",
          "type": "address"
        }
      ],
      "name": "balanceOf",
      "outputs": [
        {
          "internalType": "uint256",
          "name": "",
          "type": "uint256"
        }
      ],
      "stateMutability": "view",
      "type": "function"
    },
    {
      "inputs": [
        {
          "internalType": "uint256",
          "name": "tokenId",
          "type": "uint256"
        }
      ],
      "name": "getApproved",
      "outputs": [
        {
          "internalType": "address",
          "name": "",
          "type": "address"
        }
      ],
      "stateMutability": "view",
      "type": "function"
    },
    {
      "inputs": [
        {
          "internalType": "uint256",
          "name": "moddedRng",
          "type": "uint256"
        }
      ],
      "name": "getBreedFromModdedRng",
      "outputs": [
        {
          "internalType": "enum RandomipfsNft.Breed",
          "name": "",
          "type": "uint8"
        }
      ],
      "stateMutability": "pure",
      "type": "function"
    },
    {
      "inputs": [],
      "name": "getChanceArray",
      "outputs": [
        {
          "internalType": "uint256[3]",
          "name": "",
          "type": "uint256[3]"
        }
      ],
      "stateMutability": "pure",
      "type": "function"
    },
    {
      "inputs": [
        {
          "internalType": "uint256",
          "name": "index",
          "type": "uint256"
        }
      ],
      "name": "getDogTokenUris",
      "outputs": [
        {
          "internalType": "string",
          "name": "",
          "type": "string"
        }
      ],
      "stateMutability": "view",
      "type": "function"
    },
    {
      "inputs": [],
      "name": "getMintFee",
      "outputs": [
        {
          "internalType": "uint256",
          "name": "",
          "type": "uint256"
        }
      ],
      "stateMutability": "view",
      "type": "function"
    },
    {
      "inputs": [],
      "name": "getTokenCounter",
      "outputs": [
        {
          "internalType": "uint256",
          "name": "",
          "type": "uint256"
        }
      ],
      "stateMutability": "view",
      "type": "function"
    },
    {
      "inputs": [
        {
          "internalType": "address",
          "name": "owner",
          "type": "address"
        },
        {
          "internalType": "address",
          "name": "operator",
          "type": "address"
        }
      ],
      "name": "isApprovedForAll",
      "outputs": [
        {
          "internalType": "bool",
          "name": "",
          "type": "bool"
        }
      ],
      "stateMutability": "view",
      "type": "function"
    },
    {
      "inputs": [],
      "name": "name",
      "outputs": [
        {
          "internalType": "string",
          "name": "",
          "type": "string"
        }
      ],
      "stateMutability": "view",
      "type": "function"
    },
    {
      "inputs": [],
      "name": "owner",
      "outputs": [
        {
          "internalType": "address",
          "name": "",
          "type": "address"
        }
      ],
      "stateMutability": "view",
      "type": "function"
    },
    {
      "inputs": [
        {
          "internalType": "uint256",
          "name": "tokenId",
          "type": "uint256"
        }
      ],
      "name": "ownerOf",
      "outputs": [
        {
          "internalType": "address",
          "name": "",
          "type": "address"
        }
      ],
      "stateMutability": "view",
      "type": "function"
    },
    {
      "inputs": [
        {
          "internalType": "uint256",
          "name": "requestId",
          "type": "uint256"
        },
        {
          "internalType": "uint256[]",
          "name": "randomWords",
          "type": "uint256[]"
        }
      ],
      "name": "rawFulfillRandomWords",
      "outputs": [],
      "stateMutability": "nonpayable",
      "type": "function"
    },
    {
      "inputs": [],
      "name": "renounceOwnership",
      "outputs": [],
      "stateMutability": "nonpayable",
      "type": "function"
    },
    {
      "inputs": [],
      "name": "requestNft",
      "outputs": [
        {
          "internalType": "uint256",
          "name": "requestId",
          "type": "uint256"
        }
      ],
      "stateMutability": "payable",
      "type": "function"
    },
    {
      "inputs": [
        {
          "internalType": "address",
          "name": "from",
          "type": "address"
        },
        {
          "internalType": "address",
          "name": "to",
          "type": "address"
        },
        {
          "internalType": "uint256",
          "name": "tokenId",
          "type": "uint256"
        }
      ],
      "name": "safeTransferFrom",
      "outputs": [],
      "stateMutability": "nonpayable",
      "type": "function"
    },
    {
      "inputs": [
        {
          "internalType": "address",
          "name": "from",
          "type": "address"
        },
        {
          "internalType": "address",
          "name": "to",
          "type": "address"
        },
        {
          "internalType": "uint256",
          "name": "tokenId",
          "type": "uint256"
        },
        {
          "internalType": "bytes",
          "name": "data",
          "type": "bytes"
        }
      ],
      "name": "safeTransferFrom",
      "outputs": [],
      "stateMutability": "nonpayable",
      "type": "function"
    },
    {
      "inputs": [
        {
          "internalType": "address",
          "name": "operator",
          "type": "address"
        },
        {
          "internalType": "bool",
          "name": "approved",
          "type": "bool"
        }
      ],
      "name": "setApprovalForAll",
      "outputs": [],
      "stateMutability": "nonpayable",
      "type": "function"
    },
    {
      "inputs": [
        {
          "internalType": "bytes4",
          "name": "interfaceId",
          "type": "bytes4"
        }
      ],
      "name": "supportsInterface",
      "outputs": [
        {
          "internalType": "bool",
          "name": "",
          "type": "bool"
        }
      ],
      "stateMutability": "view",
      "type": "function"
    },
    {
      "inputs": [],
      "name": "symbol",
      "outputs": [
        {
          "internalType": "string",
          "name": "",
          "type": "string"
        }
      ],
      "stateMutability": "view",
      "type": "function"
    },
    {
      "inputs": [
        {
          "internalType": "uint256",
          "name": "tokenId",
          "type": "uint256"
        }
      ],
      "name": "tokenURI",
      "outputs": [
        {
          "internalType": "string",
          "name": "",
          "type": "string"
        }
      ],
      "stateMutability": "view",
      "type": "function"
    },
    {
      "inputs": [
        {
          "internalType": "address",
          "name": "from",
          "type": "address"
        },
        {
          "internalType": "address",
          "name": "to",
          "type": "address"
        },
        {
          "internalType": "uint256",
          "name": "tokenId",
          "type": "uint256"
        }
      ],
      "name": "transferFrom",
      "outputs": [],
      "stateMutability": "nonpayable",
      "type": "function"
    },
    {
      "inputs": [
        {
          "internalType": "address",
          "name": "newOwner",
          "type": "address"
        }
      ],
      "name": "transferOwnership",
      "outputs": [],
      "stateMutability": "nonpayable",
      "type": "function"
    },
    {
      "inputs": [],
      "name": "withdraw",
      "outputs": [],
      "stateMutability": "nonpayable",
      "type": "function"
    }
  ],
  "bytecode": "0x6101406040523480156200001257600080fd5b50604051620042c4380380620042c483398181016040528101906200003891906200080b565b6040518060400160405280600f81526020017f52616e646f6d2049706673204e465400000000000000000000000000000000008152506040518060400160405280600381526020017f52494e0000000000000000000000000000000000000000000000000000000000815250878073ffffffffffffffffffffffffffffffffffffffff1660808173ffffffffffffffffffffffffffffffffffffffff1660601b81525050508160009080519060200190620000f59291906200029e565b5080600190805190602001906200010e9291906200029e565b5050506200013162000125620001d060201b60201c565b620001d860201b60201c565b8573ffffffffffffffffffffffffffffffffffffffff1660a08173ffffffffffffffffffffffffffffffffffffffff1660601b815250508460c081815250508367ffffffffffffffff1660e08167ffffffffffffffff1660c01b815250508263ffffffff166101008163ffffffff1660e01b81525050816008906003620001ba9291906200032f565b508061012081815250505050505050506200092b565b600033905090565b6000600760009054906101000a900473ffffffffffffffffffffffffffffffffffffffff16905081600760006101000a81548173ffffffffffffffffffffffffffffffffffffffff021916908373ffffffffffffffffffffffffffffffffffffffff1602179055508173ffffffffffffffffffffffffffffffffffffffff168173ffffffffffffffffffffffffffffffffffffffff167f8be0079c531659141344cd1fd0a4f28419497f9722a3daafe3b4186f6b6457e060405160405180910390a35050565b828054620002ac90620008f5565b90600052602060002090601f016020900481019282620002d057600085556200031c565b82601f10620002eb57805160ff19168380011785556200031c565b828001600101855582156200031c579182015b828111156200031b578251825591602001919060010190620002fe565b5b5090506200032b919062000396565b5090565b82805482825590600052602060002090810192821562000383579160200282015b8281111562000382578251829080519060200190620003719291906200029e565b509160200191906001019062000350565b5b509050620003929190620003b5565b5090565b5b80821115620003b157600081600090555060010162000397565b5090565b5b80821115620003d95760008181620003cf9190620003dd565b50600101620003b6565b5090565b508054620003eb90620008f5565b6000825580601f10620003ff575062000420565b601f0160209004906000526020600020908101906200041f919062000396565b5b50565b6000604051905090565b600080fd5b600080fd5b600073ffffffffffffffffffffffffffffffffffffffff82169050919050565b6000620004648262000437565b9050919050565b620004768162000457565b81146200048257600080fd5b50565b60008151905062000496816200046b565b92915050565b6000819050919050565b620004b1816200049c565b8114620004bd57600080fd5b50565b600081519050620004d181620004a6565b92915050565b600067ffffffffffffffff82169050919050565b620004f681620004d7565b81146200050257600080fd5b50565b6000815190506200051681620004eb565b92915050565b600063ffffffff82169050919050565b62000537816200051c565b81146200054357600080fd5b50565b60008151905062000557816200052c565b92915050565b600080fd5b6000601f19601f8301169050919050565b7f4e487b7100000000000000000000000000000000000000000000000000000000600052604160045260246000fd5b620005ad8262000562565b810181811067ffffffffffffffff82111715620005cf57620005ce62000573565b5b80604052505050565b6000620005e462000423565b9050620005f28282620005a2565b919050565b600067ffffffffffffffff82111562000615576200061462000573565b5b602082029050919050565b600080fd5b600080fd5b600067ffffffffffffffff82111562000648576200064762000573565b5b620006538262000562565b9050602081019050919050565b60005b838110156200068057808201518184015260208101905062000663565b8381111562000690576000848401525b50505050565b6000620006ad620006a7846200062a565b620005d8565b905082815260208101848484011115620006cc57620006cb62000625565b5b620006d984828562000660565b509392505050565b600082601f830112620006f957620006f86200055d565b5b81516200070b84826020860162000696565b91505092915050565b60006200072b6200072584620005f7565b620005d8565b9050806020840283018581111562000748576200074762000620565b5b835b818110156200079657805167ffffffffffffffff8111156200077157620007706200055d565b5b808601620007808982620006e1565b855260208501945050506020810190506200074a565b5050509392505050565b600082601f830112620007b857620007b76200055d565b5b6003620007c784828562000714565b91505092915050565b6000819050919050565b620007e581620007d0565b8114620007f157600080fd5b50565b6000815190506200080581620007da565b92915050565b60008060008060008060c087890312156200082b576200082a6200042d565b5b60006200083b89828a0162000485565b96505060206200084e89828a01620004c0565b95505060406200086189828a0162000505565b94505060606200087489828a0162000546565b935050608087015167ffffffffffffffff81111562000898576200089762000432565b5b620008a689828a01620007a0565b92505060a0620008b989828a01620007f4565b9150509295509295509295565b7f4e487b7100000000000000000000000000000000000000000000000000000000600052602260045260246000fd5b600060028204905060018216806200090e57607f821691505b60208210811415620009255762000924620008c6565b5b50919050565b60805160601c60a05160601c60c05160e05160c01c6101005160e01c6101205161392f6200099560003960008181610cdb0152610ea101526000610f7b01526000610f5801526000610f3701526000610efb01526000818161087901526108cd015261392f6000f3fe60806040526004361061014b5760003560e01c806370a08231116100b6578063a51cccf31161006f578063a51cccf31461047e578063aa152491146104bb578063b88d4fde146104d9578063c87b56dd14610502578063e985e9c51461053f578063f2fde38b1461057c5761014b565b806370a0823114610380578063715018a6146103bd5780637a5caab3146103d45780638da5cb5b146103ff57806395d89b411461042a578063a22cb465146104555761014b565b80633af25975116101085780633af25975146102705780633ccfd60b146102ad57806342842e0e146102c45780635dacf5f4146102ed5780636352211e146103185780636e02007d146103555761014b565b806301ffc9a71461015057806306fdde031461018d578063081812fc146101b8578063095ea7b3146101f55780631fe543e31461021e57806323b872dd14610247575b600080fd5b34801561015c57600080fd5b5061017760048036038101906101729190612436565b6105a5565b604051610184919061247e565b60405180910390f35b34801561019957600080fd5b506101a2610687565b6040516101af9190612532565b60405180910390f35b3480156101c457600080fd5b506101df60048036038101906101da919061258a565b610719565b6040516101ec91906125f8565b60405180910390f35b34801561020157600080fd5b5061021c6004803603810190610217919061263f565b61075f565b005b34801561022a57600080fd5b50610245600480360381019061024091906127c7565b610877565b005b34801561025357600080fd5b5061026e60048036038101906102699190612823565b610937565b005b34801561027c57600080fd5b506102976004803603810190610292919061258a565b610997565b6040516102a49190612532565b60405180910390f35b3480156102b957600080fd5b506102c2610a47565b005b3480156102d057600080fd5b506102eb60048036038101906102e69190612823565b610b04565b005b3480156102f957600080fd5b50610302610b24565b60405161030f9190612921565b60405180910390f35b34801561032457600080fd5b5061033f600480360381019061033a919061258a565b610b4f565b60405161034c91906125f8565b60405180910390f35b34801561036157600080fd5b5061036a610c01565b604051610377919061294b565b60405180910390f35b34801561038c57600080fd5b506103a760048036038101906103a29190612966565b610c0b565b6040516103b4919061294b565b60405180910390f35b3480156103c957600080fd5b506103d2610cc3565b005b3480156103e057600080fd5b506103e9610cd7565b6040516103f6919061294b565b60405180910390f35b34801561040b57600080fd5b50610414610cff565b60405161042191906125f8565b60405180910390f35b34801561043657600080fd5b5061043f610d29565b60405161044c9190612532565b60405180910390f35b34801561046157600080fd5b5061047c600480360381019061047791906129bf565b610dbb565b005b34801561048a57600080fd5b506104a560048036038101906104a0919061258a565b610dd1565b6040516104b29190612a76565b60405180910390f35b6104c3610e9d565b6040516104d0919061294b565b60405180910390f35b3480156104e557600080fd5b5061050060048036038101906104fb9190612b46565b61109d565b005b34801561050e57600080fd5b506105296004803603810190610524919061258a565b6110ff565b6040516105369190612532565b60405180910390f35b34801561054b57600080fd5b5061056660048036038101906105619190612bc9565b611212565b604051610573919061247e565b60405180910390f35b34801561058857600080fd5b506105a3600480360381019061059e9190612966565b6112a6565b005b60007f80ac58cd000000000000000000000000000000000000000000000000000000007bffffffffffffffffffffffffffffffffffffffffffffffffffffffff1916827bffffffffffffffffffffffffffffffffffffffffffffffffffffffff1916148061067057507f5b5e139f000000000000000000000000000000000000000000000000000000007bffffffffffffffffffffffffffffffffffffffffffffffffffffffff1916827bffffffffffffffffffffffffffffffffffffffffffffffffffffffff1916145b80610680575061067f8261132a565b5b9050919050565b60606000805461069690612c38565b80601f01602080910402602001604051908101604052809291908181526020018280546106c290612c38565b801561070f5780601f106106e45761010080835404028352916020019161070f565b820191906000526020600020905b8154815290600101906020018083116106f257829003601f168201915b5050505050905090565b600061072482611394565b6004600083815260200190815260200160002060009054906101000a900473ffffffffffffffffffffffffffffffffffffffff169050919050565b600061076a82610b4f565b90508073ffffffffffffffffffffffffffffffffffffffff168373ffffffffffffffffffffffffffffffffffffffff1614156107db576040517f08c379a00000000000000000000000000000000000000000000000000000000081526004016107d290612cdc565b60405180910390fd5b8073ffffffffffffffffffffffffffffffffffffffff166107fa6113df565b73ffffffffffffffffffffffffffffffffffffffff1614806108295750610828816108236113df565b611212565b5b610868576040517f08c379a000000000000000000000000000000000000000000000000000000000815260040161085f90612d6e565b60405180910390fd5b61087283836113e7565b505050565b7f000000000000000000000000000000000000000000000000000000000000000073ffffffffffffffffffffffffffffffffffffffff163373ffffffffffffffffffffffffffffffffffffffff161461092957337f00000000000000000000000000000000000000000000000000000000000000006040517f1cf993f4000000000000000000000000000000000000000000000000000000008152600401610920929190612d8e565b60405180910390fd5b61093382826114a0565b5050565b6109486109426113df565b82611625565b610987576040517f08c379a000000000000000000000000000000000000000000000000000000000815260040161097e90612e29565b60405180910390fd5b6109928383836116ba565b505050565b6060600882815481106109ad576109ac612e49565b5b9060005260206000200180546109c290612c38565b80601f01602080910402602001604051908101604052809291908181526020018280546109ee90612c38565b8015610a3b5780601f10610a1057610100808354040283529160200191610a3b565b820191906000526020600020905b815481529060010190602001808311610a1e57829003601f168201915b50505050509050919050565b610a4f611921565b600047905060003373ffffffffffffffffffffffffffffffffffffffff1682604051610a7a90612ea9565b60006040518083038185875af1925050503d8060008114610ab7576040519150601f19603f3d011682016040523d82523d6000602084013e610abc565b606091505b5050905080610b00576040517f08c379a0000000000000000000000000000000000000000000000000000000008152600401610af790612f0a565b60405180910390fd5b5050565b610b1f8383836040518060200160405280600081525061109d565b505050565b610b2c612305565b6040518060600160405280600a8152602001601e81526020016064815250905090565b6000806002600084815260200190815260200160002060009054906101000a900473ffffffffffffffffffffffffffffffffffffffff169050600073ffffffffffffffffffffffffffffffffffffffff168173ffffffffffffffffffffffffffffffffffffffff161415610bf8576040517f08c379a0000000000000000000000000000000000000000000000000000000008152600401610bef90612f76565b60405180910390fd5b80915050919050565b6000600a54905090565b60008073ffffffffffffffffffffffffffffffffffffffff168273ffffffffffffffffffffffffffffffffffffffff161415610c7c576040517f08c379a0000000000000000000000000000000000000000000000000000000008152600401610c7390613008565b60405180910390fd5b600360008373ffffffffffffffffffffffffffffffffffffffff1673ffffffffffffffffffffffffffffffffffffffff168152602001908152602001600020549050919050565b610ccb611921565b610cd5600061199f565b565b60007f0000000000000000000000000000000000000000000000000000000000000000905090565b6000600760009054906101000a900473ffffffffffffffffffffffffffffffffffffffff16905090565b606060018054610d3890612c38565b80601f0160208091040260200160405190810160405280929190818152602001828054610d6490612c38565b8015610db15780601f10610d8657610100808354040283529160200191610db1565b820191906000526020600020905b815481529060010190602001808311610d9457829003601f168201915b5050505050905090565b610dcd610dc66113df565b8383611a65565b5050565b600080600090506000610de2610b24565b905060005b6003811015610e6557828510158015610e165750818160038110610e0e57610e0d612e49565b5b602002015185105b15610e3857806002811115610e2e57610e2d6129ff565b5b9350505050610e98565b818160038110610e4b57610e4a612e49565b5b602002015192508080610e5d90613057565b915050610de7565b506040517f0655dc2500000000000000000000000000000000000000000000000000000000815260040160405180910390fd5b919050565b60007f0000000000000000000000000000000000000000000000000000000000000000341015610ef9576040517fce5c8f6100000000000000000000000000000000000000000000000000000000815260040160405180910390fd5b7f000000000000000000000000000000000000000000000000000000000000000073ffffffffffffffffffffffffffffffffffffffff16635d3b1d307f00000000000000000000000000000000000000000000000000000000000000007f000000000000000000000000000000000000000000000000000000000000000060037f000000000000000000000000000000000000000000000000000000000000000060016040518663ffffffff1660e01b8152600401610fbc959493929190613153565b602060405180830381600087803b158015610fd657600080fd5b505af1158015610fea573d6000803e3d6000fd5b505050506040513d601f19601f8201168201806040525081019061100e91906131bb565b9050336009600083815260200190815260200160002060006101000a81548173ffffffffffffffffffffffffffffffffffffffff021916908373ffffffffffffffffffffffffffffffffffffffff160217905550807ff873236e6cc0ecc5be1a9a35c95ee5b8d1ac4cc7bfef0cc5060391d6cc98e26b3360405161109291906125f8565b60405180910390a290565b6110ae6110a86113df565b83611625565b6110ed576040517f08c379a00000000000000000000000000000000000000000000000000000000081526004016110e490612e29565b60405180910390fd5b6110f984848484611bd2565b50505050565b606061110a82611394565b600060066000848152602001908152602001600020805461112a90612c38565b80601f016020809104026020016040519081016040528092919081815260200182805461115690612c38565b80156111a35780601f10611178576101008083540402835291602001916111a3565b820191906000526020600020905b81548152906001019060200180831161118657829003601f168201915b5050505050905060006111b4611c2e565b90506000815114156111ca57819250505061120d565b6000825111156111ff5780826040516020016111e7929190613224565b6040516020818303038152906040529250505061120d565b61120884611c45565b925050505b919050565b6000600560008473ffffffffffffffffffffffffffffffffffffffff1673ffffffffffffffffffffffffffffffffffffffff16815260200190815260200160002060008373ffffffffffffffffffffffffffffffffffffffff1673ffffffffffffffffffffffffffffffffffffffff16815260200190815260200160002060009054906101000a900460ff16905092915050565b6112ae611921565b600073ffffffffffffffffffffffffffffffffffffffff168173ffffffffffffffffffffffffffffffffffffffff16141561131e576040517f08c379a0000000000000000000000000000000000000000000000000000000008152600401611315906132ba565b60405180910390fd5b6113278161199f565b50565b60007f01ffc9a7000000000000000000000000000000000000000000000000000000007bffffffffffffffffffffffffffffffffffffffffffffffffffffffff1916827bffffffffffffffffffffffffffffffffffffffffffffffffffffffff1916149050919050565b61139d81611cad565b6113dc576040517f08c379a00000000000000000000000000000000000000000000000000000000081526004016113d390612f76565b60405180910390fd5b50565b600033905090565b816004600083815260200190815260200160002060006101000a81548173ffffffffffffffffffffffffffffffffffffffff021916908373ffffffffffffffffffffffffffffffffffffffff160217905550808273ffffffffffffffffffffffffffffffffffffffff1661145a83610b4f565b73ffffffffffffffffffffffffffffffffffffffff167f8c5be1e5ebec7d5bd14f71427d1e84f3dd0314c0f7b2291e5b200ac8c7c3b92560405160405180910390a45050565b60006009600084815260200190815260200160002060009054906101000a900473ffffffffffffffffffffffffffffffffffffffff1690506000600a54905060006064846000815181106114f7576114f6612e49565b5b60200260200101516115099190613309565b9050600061151682610dd1565b90506115228484611d19565b6115e483600883600281111561153b5761153a6129ff565b5b8154811061154c5761154b612e49565b5b90600052602060002001805461156190612c38565b80601f016020809104026020016040519081016040528092919081815260200182805461158d90612c38565b80156115da5780601f106115af576101008083540402835291602001916115da565b820191906000526020600020905b8154815290600101906020018083116115bd57829003601f168201915b5050505050611d37565b7f8a269f26b688e110e9cbd887d163dab35cae678fa353a0292de532c0cac1ecdc818560405161161592919061333a565b60405180910390a1505050505050565b60008061163183610b4f565b90508073ffffffffffffffffffffffffffffffffffffffff168473ffffffffffffffffffffffffffffffffffffffff16148061167357506116728185611212565b5b806116b157508373ffffffffffffffffffffffffffffffffffffffff1661169984610719565b73ffffffffffffffffffffffffffffffffffffffff16145b91505092915050565b8273ffffffffffffffffffffffffffffffffffffffff166116da82610b4f565b73ffffffffffffffffffffffffffffffffffffffff1614611730576040517f08c379a0000000000000000000000000000000000000000000000000000000008152600401611727906133d5565b60405180910390fd5b600073ffffffffffffffffffffffffffffffffffffffff168273ffffffffffffffffffffffffffffffffffffffff1614156117a0576040517f08c379a000000000000000000000000000000000000000000000000000000000815260040161179790613467565b60405180910390fd5b6117ab838383611dab565b6117b66000826113e7565b6001600360008573ffffffffffffffffffffffffffffffffffffffff1673ffffffffffffffffffffffffffffffffffffffff16815260200190815260200160002060008282546118069190613487565b925050819055506001600360008473ffffffffffffffffffffffffffffffffffffffff1673ffffffffffffffffffffffffffffffffffffffff168152602001908152602001600020600082825461185d91906134bb565b92505081905550816002600083815260200190815260200160002060006101000a81548173ffffffffffffffffffffffffffffffffffffffff021916908373ffffffffffffffffffffffffffffffffffffffff160217905550808273ffffffffffffffffffffffffffffffffffffffff168473ffffffffffffffffffffffffffffffffffffffff167fddf252ad1be2c89b69c2b068fc378daa952ba7f163c4a11628f55a4df523b3ef60405160405180910390a461191c838383611db0565b505050565b6119296113df565b73ffffffffffffffffffffffffffffffffffffffff16611947610cff565b73ffffffffffffffffffffffffffffffffffffffff161461199d576040517f08c379a00000000000000000000000000000000000000000000000000000000081526004016119949061355d565b60405180910390fd5b565b6000600760009054906101000a900473ffffffffffffffffffffffffffffffffffffffff16905081600760006101000a81548173ffffffffffffffffffffffffffffffffffffffff021916908373ffffffffffffffffffffffffffffffffffffffff1602179055508173ffffffffffffffffffffffffffffffffffffffff168173ffffffffffffffffffffffffffffffffffffffff167f8be0079c531659141344cd1fd0a4f28419497f9722a3daafe3b4186f6b6457e060405160405180910390a35050565b8173ffffffffffffffffffffffffffffffffffffffff168373ffffffffffffffffffffffffffffffffffffffff161415611ad4576040517f08c379a0000000000000000000000000000000000000000000000000000000008152600401611acb906135c9565b60405180910390fd5b80600560008573ffffffffffffffffffffffffffffffffffffffff1673ffffffffffffffffffffffffffffffffffffffff16815260200190815260200160002060008473ffffffffffffffffffffffffffffffffffffffff1673ffffffffffffffffffffffffffffffffffffffff16815260200190815260200160002060006101000a81548160ff0219169083151502179055508173ffffffffffffffffffffffffffffffffffffffff168373ffffffffffffffffffffffffffffffffffffffff167f17307eab39ab6107e8899845ad3d59bd9653f200f220920489ca2b5937696c3183604051611bc5919061247e565b60405180910390a3505050565b611bdd8484846116ba565b611be984848484611db5565b611c28576040517f08c379a0000000000000000000000000000000000000000000000000000000008152600401611c1f9061365b565b60405180910390fd5b50505050565b606060405180602001604052806000815250905090565b6060611c5082611394565b6000611c5a611c2e565b90506000815111611c7a5760405180602001604052806000815250611ca5565b80611c8484611f4c565b604051602001611c95929190613224565b6040516020818303038152906040525b915050919050565b60008073ffffffffffffffffffffffffffffffffffffffff166002600084815260200190815260200160002060009054906101000a900473ffffffffffffffffffffffffffffffffffffffff1673ffffffffffffffffffffffffffffffffffffffff1614159050919050565b611d338282604051806020016040528060008152506120ad565b5050565b611d4082611cad565b611d7f576040517f08c379a0000000000000000000000000000000000000000000000000000000008152600401611d76906136ed565b60405180910390fd5b80600660008481526020019081526020016000209080519060200190611da6929190612327565b505050565b505050565b505050565b6000611dd68473ffffffffffffffffffffffffffffffffffffffff16612108565b15611f3f578373ffffffffffffffffffffffffffffffffffffffff1663150b7a02611dff6113df565b8786866040518563ffffffff1660e01b8152600401611e219493929190613762565b602060405180830381600087803b158015611e3b57600080fd5b505af1925050508015611e6c57506040513d601f19601f82011682018060405250810190611e6991906137c3565b60015b611eef573d8060008114611e9c576040519150601f19603f3d011682016040523d82523d6000602084013e611ea1565b606091505b50600081511415611ee7576040517f08c379a0000000000000000000000000000000000000000000000000000000008152600401611ede9061365b565b60405180910390fd5b805181602001fd5b63150b7a0260e01b7bffffffffffffffffffffffffffffffffffffffffffffffffffffffff1916817bffffffffffffffffffffffffffffffffffffffffffffffffffffffff191614915050611f44565b600190505b949350505050565b60606000821415611f94576040518060400160405280600181526020017f300000000000000000000000000000000000000000000000000000000000000081525090506120a8565b600082905060005b60008214611fc6578080611faf90613057565b915050600a82611fbf91906137f0565b9150611f9c565b60008167ffffffffffffffff811115611fe257611fe1612684565b5b6040519080825280601f01601f1916602001820160405280156120145781602001600182028036833780820191505090505b5090505b600085146120a15760018261202d9190613487565b9150600a8561203c9190613309565b603061204891906134bb565b60f81b81838151811061205e5761205d612e49565b5b60200101907effffffffffffffffffffffffffffffffffffffffffffffffffffffffffffff1916908160001a905350600a8561209a91906137f0565b9450612018565b8093505050505b919050565b6120b7838361212b565b6120c46000848484611db5565b612103576040517f08c379a00000000000000000000000000000000000000000000000000000000081526004016120fa9061365b565b60405180910390fd5b505050565b6000808273ffffffffffffffffffffffffffffffffffffffff163b119050919050565b600073ffffffffffffffffffffffffffffffffffffffff168273ffffffffffffffffffffffffffffffffffffffff16141561219b576040517f08c379a00000000000000000000000000000000000000000000000000000000081526004016121929061386d565b60405180910390fd5b6121a481611cad565b156121e4576040517f08c379a00000000000000000000000000000000000000000000000000000000081526004016121db906138d9565b60405180910390fd5b6121f060008383611dab565b6001600360008473ffffffffffffffffffffffffffffffffffffffff1673ffffffffffffffffffffffffffffffffffffffff168152602001908152602001600020600082825461224091906134bb565b92505081905550816002600083815260200190815260200160002060006101000a81548173ffffffffffffffffffffffffffffffffffffffff021916908373ffffffffffffffffffffffffffffffffffffffff160217905550808273ffffffffffffffffffffffffffffffffffffffff16600073ffffffffffffffffffffffffffffffffffffffff167fddf252ad1be2c89b69c2b068fc378daa952ba7f163c4a11628f55a4df523b3ef60405160405180910390a461230160008383611db0565b5050565b6040518060600160405280600390602082028036833780820191505090505090565b82805461233390612c38565b90600052602060002090601f016020900481019282612355576000855561239c565b82601f1061236e57805160ff191683800117855561239c565b8280016001018555821561239c579182015b8281111561239b578251825591602001919060010190612380565b5b5090506123a991906123ad565b5090565b5b808211156123c65760008160009055506001016123ae565b5090565b6000604051905090565b600080fd5b600080fd5b60007fffffffff0000000000000000000000000000000000000000000000000000000082169050919050565b612413816123de565b811461241e57600080fd5b50565b6000813590506124308161240a565b92915050565b60006020828403121561244c5761244b6123d4565b5b600061245a84828501612421565b91505092915050565b60008115159050919050565b61247881612463565b82525050565b6000602082019050612493600083018461246f565b92915050565b600081519050919050565b600082825260208201905092915050565b60005b838110156124d35780820151818401526020810190506124b8565b838111156124e2576000848401525b50505050565b6000601f19601f8301169050919050565b600061250482612499565b61250e81856124a4565b935061251e8185602086016124b5565b612527816124e8565b840191505092915050565b6000602082019050818103600083015261254c81846124f9565b905092915050565b6000819050919050565b61256781612554565b811461257257600080fd5b50565b6000813590506125848161255e565b92915050565b6000602082840312156125a05761259f6123d4565b5b60006125ae84828501612575565b91505092915050565b600073ffffffffffffffffffffffffffffffffffffffff82169050919050565b60006125e2826125b7565b9050919050565b6125f2816125d7565b82525050565b600060208201905061260d60008301846125e9565b92915050565b61261c816125d7565b811461262757600080fd5b50565b60008135905061263981612613565b92915050565b60008060408385031215612656576126556123d4565b5b60006126648582860161262a565b925050602061267585828601612575565b9150509250929050565b600080fd5b7f4e487b7100000000000000000000000000000000000000000000000000000000600052604160045260246000fd5b6126bc826124e8565b810181811067ffffffffffffffff821117156126db576126da612684565b5b80604052505050565b60006126ee6123ca565b90506126fa82826126b3565b919050565b600067ffffffffffffffff82111561271a57612719612684565b5b602082029050602081019050919050565b600080fd5b600061274361273e846126ff565b6126e4565b905080838252602082019050602084028301858111156127665761276561272b565b5b835b8181101561278f578061277b8882612575565b845260208401935050602081019050612768565b5050509392505050565b600082601f8301126127ae576127ad61267f565b5b81356127be848260208601612730565b91505092915050565b600080604083850312156127de576127dd6123d4565b5b60006127ec85828601612575565b925050602083013567ffffffffffffffff81111561280d5761280c6123d9565b5b61281985828601612799565b9150509250929050565b60008060006060848603121561283c5761283b6123d4565b5b600061284a8682870161262a565b935050602061285b8682870161262a565b925050604061286c86828701612575565b9150509250925092565b600060039050919050565b600081905092915050565b6000819050919050565b61289f81612554565b82525050565b60006128b18383612896565b60208301905092915050565b6000602082019050919050565b6128d381612876565b6128dd8184612881565b92506128e88261288c565b8060005b8381101561291957815161290087826128a5565b965061290b836128bd565b9250506001810190506128ec565b505050505050565b600060608201905061293660008301846128ca565b92915050565b61294581612554565b82525050565b6000602082019050612960600083018461293c565b92915050565b60006020828403121561297c5761297b6123d4565b5b600061298a8482850161262a565b91505092915050565b61299c81612463565b81146129a757600080fd5b50565b6000813590506129b981612993565b92915050565b600080604083850312156129d6576129d56123d4565b5b60006129e48582860161262a565b92505060206129f5858286016129aa565b9150509250929050565b7f4e487b7100000000000000000000000000000000000000000000000000000000600052602160045260246000fd5b60038110612a3f57612a3e6129ff565b5b50565b6000819050612a5082612a2e565b919050565b6000612a6082612a42565b9050919050565b612a7081612a55565b82525050565b6000602082019050612a8b6000830184612a67565b92915050565b600080fd5b600067ffffffffffffffff821115612ab157612ab0612684565b5b612aba826124e8565b9050602081019050919050565b82818337600083830152505050565b6000612ae9612ae484612a96565b6126e4565b905082815260208101848484011115612b0557612b04612a91565b5b612b10848285612ac7565b509392505050565b600082601f830112612b2d57612b2c61267f565b5b8135612b3d848260208601612ad6565b91505092915050565b60008060008060808587031215612b6057612b5f6123d4565b5b6000612b6e8782880161262a565b9450506020612b7f8782880161262a565b9350506040612b9087828801612575565b925050606085013567ffffffffffffffff811115612bb157612bb06123d9565b5b612bbd87828801612b18565b91505092959194509250565b60008060408385031215612be057612bdf6123d4565b5b6000612bee8582860161262a565b9250506020612bff8582860161262a565b9150509250929050565b7f4e487b7100000000000000000000000000000000000000000000000000000000600052602260045260246000fd5b60006002820490506001821680612c5057607f821691505b60208210811415612c6457612c63612c09565b5b50919050565b7f4552433732313a20617070726f76616c20746f2063757272656e74206f776e6560008201527f7200000000000000000000000000000000000000000000000000000000000000602082015250565b6000612cc66021836124a4565b9150612cd182612c6a565b604082019050919050565b60006020820190508181036000830152612cf581612cb9565b9050919050565b7f4552433732313a20617070726f76652063616c6c6572206973206e6f7420746f60008201527f6b656e206f776e6572206e6f7220617070726f76656420666f7220616c6c0000602082015250565b6000612d58603e836124a4565b9150612d6382612cfc565b604082019050919050565b60006020820190508181036000830152612d8781612d4b565b9050919050565b6000604082019050612da360008301856125e9565b612db060208301846125e9565b9392505050565b7f4552433732313a2063616c6c6572206973206e6f7420746f6b656e206f776e6560008201527f72206e6f7220617070726f766564000000000000000000000000000000000000602082015250565b6000612e13602e836124a4565b9150612e1e82612db7565b604082019050919050565b60006020820190508181036000830152612e4281612e06565b9050919050565b7f4e487b7100000000000000000000000000000000000000000000000000000000600052603260045260246000fd5b600081905092915050565b50565b6000612e93600083612e78565b9150612e9e82612e83565b600082019050919050565b6000612eb482612e86565b9150819050919050565b7f5472616e73666572206661696c65640000000000000000000000000000000000600082015250565b6000612ef4600f836124a4565b9150612eff82612ebe565b602082019050919050565b60006020820190508181036000830152612f2381612ee7565b9050919050565b7f4552433732313a20696e76616c696420746f6b656e2049440000000000000000600082015250565b6000612f606018836124a4565b9150612f6b82612f2a565b602082019050919050565b60006020820190508181036000830152612f8f81612f53565b9050919050565b7f4552433732313a2061646472657373207a65726f206973206e6f74206120766160008201527f6c6964206f776e65720000000000000000000000000000000000000000000000602082015250565b6000612ff26029836124a4565b9150612ffd82612f96565b604082019050919050565b6000602082019050818103600083015261302181612fe5565b9050919050565b7f4e487b7100000000000000000000000000000000000000000000000000000000600052601160045260246000fd5b600061306282612554565b91507fffffffffffffffffffffffffffffffffffffffffffffffffffffffffffffffff82141561309557613094613028565b5b600182019050919050565b6000819050919050565b6130b3816130a0565b82525050565b600067ffffffffffffffff82169050919050565b6130d6816130b9565b82525050565b600061ffff82169050919050565b6130f3816130dc565b82525050565b600063ffffffff82169050919050565b613112816130f9565b82525050565b6000819050919050565b600061313d613138613133846130dc565b613118565b6130f9565b9050919050565b61314d81613122565b82525050565b600060a08201905061316860008301886130aa565b61317560208301876130cd565b61318260408301866130ea565b61318f6060830185613109565b61319c6080830184613144565b9695505050505050565b6000815190506131b58161255e565b92915050565b6000602082840312156131d1576131d06123d4565b5b60006131df848285016131a6565b91505092915050565b600081905092915050565b60006131fe82612499565b61320881856131e8565b93506132188185602086016124b5565b80840191505092915050565b600061323082856131f3565b915061323c82846131f3565b91508190509392505050565b7f4f776e61626c653a206e6577206f776e657220697320746865207a65726f206160008201527f6464726573730000000000000000000000000000000000000000000000000000602082015250565b60006132a46026836124a4565b91506132af82613248565b604082019050919050565b600060208201905081810360008301526132d381613297565b9050919050565b7f4e487b7100000000000000000000000000000000000000000000000000000000600052601260045260246000fd5b600061331482612554565b915061331f83612554565b92508261332f5761332e6132da565b5b828206905092915050565b600060408201905061334f6000830185612a67565b61335c60208301846125e9565b9392505050565b7f4552433732313a207472616e736665722066726f6d20696e636f72726563742060008201527f6f776e6572000000000000000000000000000000000000000000000000000000602082015250565b60006133bf6025836124a4565b91506133ca82613363565b604082019050919050565b600060208201905081810360008301526133ee816133b2565b9050919050565b7f4552433732313a207472616e7366657220746f20746865207a65726f2061646460008201527f7265737300000000000000000000000000000000000000000000000000000000602082015250565b60006134516024836124a4565b915061345c826133f5565b604082019050919050565b6000602082019050818103600083015261348081613444565b9050919050565b600061349282612554565b915061349d83612554565b9250828210156134b0576134af613028565b5b828203905092915050565b60006134c682612554565b91506134d183612554565b9250827fffffffffffffffffffffffffffffffffffffffffffffffffffffffffffffffff0382111561350657613505613028565b5b828201905092915050565b7f4f776e61626c653a2063616c6c6572206973206e6f7420746865206f776e6572600082015250565b60006135476020836124a4565b915061355282613511565b602082019050919050565b600060208201905081810360008301526135768161353a565b9050919050565b7f4552433732313a20617070726f766520746f2063616c6c657200000000000000600082015250565b60006135b36019836124a4565b91506135be8261357d565b602082019050919050565b600060208201905081810360008301526135e2816135a6565b9050919050565b7f4552433732313a207472616e7366657220746f206e6f6e20455243373231526560008201527f63656976657220696d706c656d656e7465720000000000000000000000000000602082015250565b60006136456032836124a4565b9150613650826135e9565b604082019050919050565b6000602082019050818103600083015261367481613638565b9050919050565b7f45524337323155524953746f726167653a2055524920736574206f66206e6f6e60008201527f6578697374656e7420746f6b656e000000000000000000000000000000000000602082015250565b60006136d7602e836124a4565b91506136e28261367b565b604082019050919050565b60006020820190508181036000830152613706816136ca565b9050919050565b600081519050919050565b600082825260208201905092915050565b60006137348261370d565b61373e8185613718565b935061374e8185602086016124b5565b613757816124e8565b840191505092915050565b600060808201905061377760008301876125e9565b61378460208301866125e9565b613791604083018561293c565b81810360608301526137a38184613729565b905095945050505050565b6000815190506137bd8161240a565b92915050565b6000602082840312156137d9576137d86123d4565b5b60006137e7848285016137ae565b91505092915050565b60006137fb82612554565b915061380683612554565b925082613816576138156132da565b5b828204905092915050565b7f4552433732313a206d696e7420746f20746865207a65726f2061646472657373600082015250565b60006138576020836124a4565b915061386282613821565b602082019050919050565b600060208201905081810360008301526138868161384a565b9050919050565b7f4552433732313a20746f6b656e20616c7265616479206d696e74656400000000600082015250565b60006138c3601c836124a4565b91506138ce8261388d565b602082019050919050565b600060208201905081810360008301526138f2816138b6565b905091905056fea264697066735822122035d223f48fadb3dd3cdd58accd9c2be75f1cc2e06041153c02120b42e68e07f564736f6c63430008080033",
  "linkReferences": {},
  "deployedLinkReferences": {}
}